:020000041000EA
:1000000000B5324B212058609868022188439860DF
:10001000D860186158612E4B002199600221596106
:100020000121F02299502B49196001219960352056
:1000300000F044F80222904214D00621196600F024
:1000400034F8196E01211966002018661A6600F04E
:100050002CF8196E196E196E052000F02FF8012189
:100060000842F9D1002199601B49196000215960AB
:100070001A491B48016001219960EB211966A021F2
:10008000196600F012F800219960164914480160C1
:100090000121996001BC002800D000471248134993
:1000A000086003C880F30888084703B5996A0420EC
:1000B0000142FBD001200142F8D103BD02B5186610
:1000C0001866FFF7F2FF186E186E02BD00000240BE
:1000D000000000180000070000035F00212200005C
:1000E000F4000018222000A00001001008ED00E03C
:1000F00000000000000000000000000074B24E7A12
:1001000000200420F7010010C3010010C5010010F9
:10011000C1010010C1010010C1010010C101001097
:10012000C1010010C1010010C1010010C701001081
:10013000C1010010C1010010C9010010CB01001065
:10014000CD010010CD010010CD010010CD01001037
:10015000CD010010CD010010CD010010CD01001027
:10016000CD010010CD010010CD010010CD01001017
:10017000CD010010CD010010CD010010CD01001007
:10018000CD010010CD010010CD010010CD010010F7
:10019000CD010010CD010010CD010010CD010010E7
:1001A000CD010010CD010010CD010010CD010010D7
:1001B000CD010010CD010010CD010010CD010010C7
:1001C00000BE00BE00BE00BE00BE00BEEFF3058054
:1001D000103800BEF2EB8871DC800010FC8000104B
:1001E0003802001090A31AE71E481F49086006C88D
:1001F00081F3088810471D480068002801D019487D
:10020000F3E70DA40ECC002902D000F012F8F9E7B4
:100210001749184A002000E001C19142FCD116495B
:100220008847164988471649884700BEFDE701C937
:1002300001C29A42FBD37047FC800010C00000202E
:10024000C00C0020FC8C00100000042000000420E2
:10025000FC8C00100010042000100420000000009E
:10026000704700000000000008ED00E0000000D032
:10027000C00C0020341D0020C13B0010F50200100E
:10028000813B0010F8B5C04606480749091A8B1093
:10029000C90FC91810B5491003D0044B002B00D06A
:1002A000984710BDC00C0020C00C002000000000CA
:1002B000054B10B5002B03D00449054800E000BFF2
:1002C000FFF7E2FF10BDC04600000000D01A00207A
:1002D000EC6C001010B504001F2100F0BDF80022E6
:1002E0000021200000F0D2F80021200000F0EAF800
:1002F00010BD0000F8B5CE46474680B503F07EFD40
:1003000006F020FC002408E0200000F0EFF80123B4
:10031000A340D022120653620134162CF4DD1A20B9
:1003200000F0E4F8D0231B068022D2049A621A203F
:10033000FFF7D0FF404B1B68E022D20113403F4A39
:100340001360642000F0B4FF0025002700239846C6
:10035000994612E002F068FA02000B00384803F0F8
:1003600081FDC846002731E001229A40D0210906CC
:100370008A610133162BF7DD0137324B04221A60F4
:100380002D4B1B68DB05FBD52B4B58680004000C7C
:1003900002F028FA2C4902F01CFA2C4902F019FA52
:1003A000041C280002F01EFA494602F012FA211C31
:1003B00002F0F4F9041C0135280002F013FA011CC4
:1003C000201C02F0F0F981463C2FC3D02049404662
:1003D00002F0FFF902F028FA01F0BEFE01F026FE5D
:1003E0000A2101F009FB1B4C89000B59D026360667
:1003F0007361404602F018FA01F0AEFE01F016FEFD
:100400000A2101F0F9FA89000B591B0273611049A6
:10041000404602F0C8F902F007FA01F09DFE01F033
:1004200005FE800003591B047361FA20800000F070
:100430003FFF00239EE7C04600C0044000D00440B8
:10044000F06C001000E004403333533A0000C8421F
:1004500000002041C80B002010B58300084A9A18FC
:1004600014684022544080322240064CA446634423
:100470001A60C000044B9C466044416010BDC046F9
:1004800004C0014004D001400040014080000C4BFA
:100490009C46604400290ED00823002A0DD0042277
:1004A0001343026853400C221340802252019446A9
:1004B0006044036070470023EFE70022F0E7C04686
:1004C00004C00140002906D08000064B9C466044D1
:1004D0004023036070478000034B9C4660444023E8
:1004E0000360F7E704E0014004F0014010B5012388
:1004F0008340D0221206936293610521FFF7ACFF7F
:1005000010BD000010B58023DB05186803051B0D26
:100510000B4A934207D10B4B034080229201934236
:1005200007D1000F10BD084B084A0948222103F0EB
:100530002BFB084B054A0648232103F025FBC04648
:100540002709000000F0FF0FF46C0010CC780010B9
:10055000186D0010606D00100FB400B583B008482E
:1005600003F050FC049B002B07D005A90191180053
:1005700003F058FC034803F045FC012003F0FEFAA9
:10058000746D0010846D0010EFF3108072B6034B91
:100590001B68002BFBD0BFF35F8F70472C0100D08E
:1005A000BFF35F8F024B00221A6080F31088704700
:1005B0002C0100D0F8B506000C001500FFF7E4FF91
:1005C000E308F718F15C07222240012393400B4215
:1005D00005D1DBB20B433B70FFF7E2FFF8BD210012
:1005E0002800FFF7B9FFF0B583B0060001911400B1
:1005F0001F00FFF7C9FF00E00134BC420CD8E3083C
:10060000F518F35C0721214001228A401A42F3D1F8
:10061000D2B21A432A7001E001246442FFF7C0FFFE
:10062000002C02DB200003B0F0BD019B002BF9D0B1
:100630000898FFF791FF0000054A1078431CDBB2D1
:100640001370172B02D9130010221A707047C0467E
:10065000F00B002010B582B00100054C054B009353
:100660001F2318222000FFF7BEFF02B010BDC046B6
:1006700064160020886D0010002307E0054A9A18D0
:100680009200BFF35F8F0021116001331F2BF5D95A
:100690007047C04640000034074B9B681030800014
:1006A0001950BFF35F8FBFF35F8F044B00211960B8
:1006B00082F310887047C04600ED00E0240100D0AE
:1006C0000048704700E400E010B5FFF7F9FF002391
:1006D00002E0034A04C00133072BFAD910BDC0461B
:1006E0008080808010B50388DA0A1C2A05D15B055A
:1006F0005B1502335B00C01810BD034B034A102189
:100700000348FF3103F040FAA46D0010087900108F
:10071000BC6D001010B5091A0B1F0A4A88180A4A46
:10072000904208D8C90706D45B105B055B0D0748EB
:10073000184380B210BD064B064A02210648FF311D
:1007400003F022FAFC070000FE0F000000E0FFFFAC
:10075000046E0010FC780010BC6D00100123834073
:10076000034A10681840431E9841C0B27047C04603
:1007700000E100E0002A05D0044BC022520099504D
:1007800019607047014A8023D150FAE700E100E088
:1007900010B50A001F230340012199404009FFF7CB
:1007A000E9FF10BD01238340014A13607047C04632
:1007B00000E200E0024B9B6810308000C058704798
:1007C00000ED00E010B5FFF7F5FF002805D0054B60
:1007D000C01A2F2803D8012010BD0020FCE70020FC
:1007E000FAE7C046F40B002070B504000D00EFF3EB
:1007F000108672B60C4B1B68002BFBD0BFF35F8FCB
:100800002000FFF7D7FF094B984201D0A84205D13D
:10081000320029002000FFF73FFF70BD044B054A5E
:100820000548E12103F0B0F9240100D0CD0100100A
:10083000346E001030790010BC6D0010F0B5DE464B
:1008400057464E464546E0B589B0814601911500B0
:10085000EFF3108B72B66F4B1B68002BFBD0BFF30E
:100860005F8F6D4B00269E57002E40DB7400A4194D
:10087000A4006A4824180622A256674B1A70684BD7
:100880009A684B4610339B00D35898461B1A2F2B5F
:100890003BD9644B984531D105AF634B3B806349ED
:1008A00073009A46981980005C4B98464044023089
:1008B000FFF730FF78805E4BBB80FF23BB71FD717B
:1008C000019B0793330053449B00434407CF07C366
:1008D00001231C43A0465A4641464846FFF7DCFE2A
:1008E00009B0F0BCBB46B246A946A046F0BD514B8C
:1008F000514A6E215148FF3103F046F9504B4E4AA0
:10090000BA214E48490003F03FF9012342469A4379
:100910009246101A0C2101F097F800290FD1534686
:100920000027DA79AA4212D90621595600290DDB8F
:100930004A005218920039491F008B18F1E7414BC9
:100940003D4A86213D48FF3103F01EF91F00002F6C
:100950002ED005AB3C4A1A80813A5A800623FB56BA
:100960000293002B17DA394805AB9A469880029A11
:100970009A71DD71019A0792381D2100FFF7CAFEB6
:10098000B880BE71254B7200921992009B18524696
:1009900013CA13C39FE7381DFFF7A4FE01007000C0
:1009A000801980001D4BC0180430FFF7B3FEDBE751
:1009B00005AF1D4B3B801D49730002939B199B00A3
:1009C000164A90461A0042440392901CFFF7A2FE7A
:1009D0007880039A101D5146FFF79CFEB8801C4B8F
:1009E00052464146521A524153431B0DBB71FD7191
:1009F000019A0792029B9B199B00434407CF07C3B0
:100A0000114B52461380813B538001231C43A04667
:100A100061E7C046240100D02D1D0020F40B00200A
:100A200000ED00E0CD01001000A1FFFF240C00202C
:100A300001BDFFFF6C6E001018790010BC6D001036
:100A4000946E0010BC6E00100148000001BD000053
:100A5000AAAA0000F8B5012202432C4BD31A2F2B6F
:100A600028D8EFF30583002B2AD0EFF3108472B659
:100A7000274909680029FBD0BFF35F8F234D254923
:100A80000600761B76417143090D4DB222498968F3
:100A90009B00C958914219D00021032930D81B4B23
:100AA0004A00521892009B189B795BB2AB421DD052
:100AB0000131F2E7194B1A4A1A481B4903F064F84E
:100AC0001A4B174A17481A4903F05EF8124A9268FF
:100AD0001849D150184B1A7882711D70BFF35F8F7F
:100AE0000B4B00221A6084F31088F8BD074B4A00B4
:100AF0005618B6009E19FF27B771104AB280E9E771
:100B00000F4B074A07480F4903F03EF8F40B00204B
:100B1000240100D0AAAA000000ED00E0406F001000
:100B2000E0780010BC6D00106E020000686F0010CD
:100B300071020000CD0100102D1D002001BDFFFF3E
:100B4000746F00108202000010B582B00100074CE3
:100B5000074B0093052300222000FFF744FD0028E7
:100B600001DB1F23181A02B010BDC046311D002042
:100B70007C6F0010024B9C46614489000160704705
:100B80004000003410B50400FFF756FD01002000BE
:100B9000FFF7F0FFFF232371BFF35F8F10BD10B588
:100BA0000400FFF749FD01002000FFF7E3FFFF23EA
:100BB000237100236371BFF35F8F10BD10B50D4C1F
:100BC00009E00D4B0D4A0E481A2102F0DDFF20000E
:100BD000FFF7D8FF08340B4B9C4209D22368002B47
:100BE000F5D0012BEDD12000FFF7D9FF0834F2E753
:100BF00010BDC046B80C0020986F0010707900102E
:100C0000B86F0010C00C0020034B9C466144890063
:100C10000160BFF35F8F70474000003410B50400DF
:100C20000120FFF717FD01002000FFF7EDFF10BDC9
:100C300000040843704700000A4B1968EFF3108363
:100C400072B60A68002AFCD0BFF35F8F054A1268AB
:100C5000BFF35F8F0021116083F3108840BF002035
:100C6000002170470C1D0020F0B5DE4657464E4669
:100C70004546E0B583B0EFF3058303221A400092A6
:100C8000B04B9200D35898461B78009A934207D1F4
:100C90000123009A93401A000193AB4B1A6015E1AF
:100CA000AA4BAB4AAB48922102F06EFF43465A6909
:100CB0004B465B004B44DB0093469B445B469E687F
:100CC000DF68A54800F0AAFB801BB941002900DAC3
:100CD00006E1002F60DB5B461C69A04B9C4245D0BF
:100CE00043460820185E5B46598889B2FFF7A0FF8B
:100CF0005B465969A04704000D0023002B434BD0ED
:100D0000002D3DDA30003900001BA9415B46986098
:100D1000D96000241C5F002C00DAE1E043465A69E8
:100D2000924663001B19DB0053449A68DB68050098
:100D30000E00AD1A9E41002E00DAD1E043461C8120
:100D400047460837BC46634600255D5F002D1DDB26
:100D50006C006419E4005444A268E36806000F00C4
:100D6000B61A9F41002F11DBA446ECE75B465C6995
:100D700023692000984700280ED065682468BCE7E6
:100D8000754800F04BFB00196941BFE75B461D80C9
:100D90004B4662461380A3E05B4600229B5E4246C0
:100DA00013811269EFF3108372B611680029FCD029
:100DB000BFF35F8F42460221525E59460A80424687
:100DC000494651801269BFF35F8F0021116083F3A0
:100DD000108885E043461969EFF3108372B60A68FC
:100DE000002AFCD0BFF35F8F4246928812B2914630
:100DF0000122524241468A800A69BFF35F8F002177
:100E0000116083F310881AE09B465B4600229A5ECD
:100E1000002A0BDB53009B18DB0053449868D96809
:100E200026002F00361A8F41002FEDDA4B46594627
:100E30000B80634600215B5E994663461A804B46F1
:100E4000002B53DB43465A6992464B465B004B44AA
:100E5000DB009C46D44463469C68DD684646083601
:100E6000B346D2E7002342469371414608314346D8
:100E70000820185E11E001225242D317A260E360FD
:100E8000434608229B5E834206D00D8043460822DB
:100E90009B5E2380434618812800431C2AD043468A
:100EA0005A6943001B18DB00D418D55E63881BB257
:100EB000002BE0DB2100EFE76B1C2AD1264800F075
:100EC000ADFA241A8D41002D34DC31D0224B019A29
:100ED0005A63434608229B5E9946002B00DBE5E6F9
:100EE00043469B881BB2002B00DB73E743469B798C
:100EF000002BB7D1434608229A5E002A1ADB4346EC
:100F0000596953009B18DB00CB189C68DD68631C93
:100F1000D2D011498A6AA01A009B04339B005B5807
:100F20009B1A9842CAD2009B04339B005C50C5E7D1
:100F3000002CCBD040BF03B0F0BCBB46B246A946A4
:100F4000A046F0BDF01A00203C7005404C70001027
:100F50009C7900107870001000400540690C00106A
:100F600070B504000D0011000126AE400662280095
:100F7000FFF73AFC01212800FFF70AFC024B9C46D0
:100F80006444266070BDC04638200000F8B5CE46E7
:100F9000474680B50600894690461F00C160FFF7AE
:100FA0004BFB154B9C4660448000306143463370D8
:100FB000BBB27381D02212061278727001225242A3
:100FC0003281B2809B187380002406E0621E736930
:100FD00065002D19ED005A530134BC42F6D3074B7E
:100FE00042469200D650064A41464846FFF7B8FFAF
:100FF000C0BCB946B046F8BD40000034F01A00202D
:10100000690C001010B5064B1B69002B01D0044879
:1010100010BD044B044A0548652102F0B5FDC046E9
:101020003C0C0020B870001084790010787000101B
:10103000F8B504000569EFF3108072B6296800293D
:10104000FCD0BFF35F8F0221665E6569710089196C
:10105000C9006D18002E02DB0027E95F618021695D
:10106000BFF35F8F00270F6080F31088002E2CDB0A
:101070000699296107996961AA60EB606B88013361
:101080005B04590C002B00D1012169803000FFF76F
:10109000CFFD2169EFF3108372B60A68002AFCD0F5
:1010A000BFF35F8FA2882A80A6802269BFF35F8F7B
:1010B0000021116083F31088E368217801228A40BF
:1010C00003498C4663441A60F8BD01204042FBE7A7
:1010D0003C20000070B582B0060014001D0008AB73
:1010E0001B78002B07D100F0AFF922002B00121A59
:1010F0008B41002B0ADB079B0193069B0093220088
:101100002B003000FFF794FF02B070BD0020FBE71A
:10111000F0B5C64600B584B00500884616001F002D
:101120000AAB1C78FFF76EFF0294019700962A0025
:101130004346FFF7CFFF04B080BCB846F0BD0000C7
:1011400030B5030008145A8990422EDA5C694200D7
:101150001218D200A2181D69EFF3108472B6286825
:101160000028FCD0BFF35F8F508880B20904090CBF
:10117000884212D000201A69BFF35F8F00211160EE
:1011800084F31088002811D0DA681B780131994067
:10119000074B9C466244116008E00649014389B24E
:1011A000518001229A710120E5E7002030BDC04640
:1011B0003C2000000080FFFF10B50400FFF722FF75
:1011C0002100FFF7BDFF10BD40787047F0B583B038
:1011D00006000F00EFF30583002B1AD106246442AA
:1011E000E517A4197D418D4202D803D1844201D96B
:1011F0000024002500F028F922002B00121A8B4150
:10120000002B0BDC08D03000390000F025F903B0CA
:10121000F0BD1A48FFF7A0F9002AF4D0184A0023BD
:10122000009320002900FFF773FF002818DAEAE78F
:10123000002300E00023002BE5D1124B1968EFF3E7
:10124000108372B60A68002AFCD0BFF35F8F0D4A84
:101250001268BFF35F8F0021116083F3108820BFF5
:10126000094B5B6A9D42E5D80749896AA14203D2CE
:101270009D42DDD00123DEE70123DCE7DC700010B6
:10128000390C00100C1D00200040054070B5040012
:101290000D0000F0D9F800196941002902DBFFF7C1
:1012A00095FF70BD012040420049F8E7FFFFFF7F36
:1012B00010B5FA2292000023002101F04DFAFFF749
:1012C000E5FF10BD70B582B005000C00EFF305839B
:1012D000002B12D03A4B5B6A8B4209D3384A926A90
:1012E000824208D28B4201D0012002E0002000E0BF
:1012F000002002B070BD0120FBE7FFF783FEC1684C
:1013000003788A6A2E00A81A04339B005B589B1A44
:10131000984212D320BF2A4B5B6A9C4209D8284AC4
:10132000926A954207D99C4201D00120E1E7002052
:10133000DFE70020DDE70120DBE7224A00230093FE
:1013400028002100FFF7E4FE00280BDD1C4B5B6A40
:101350009C421BD81A4A926A954229D99C4213D0C2
:10136000012314E0164B5B6A9C4209D8144A926A26
:10137000954207D99C4201D00120BAE70020B8E786
:101380000020B6E70120B4E7002300E00023002B93
:1013900000D120BFFFF710FF094B5B6A9C420BD8BE
:1013A000074A926A964209D99C4203D00120A0E7DD
:1013B0000123ECE700209CE700209AE7012098E752
:1013C00000400540390C00100048704700400540BF
:1013D00010B50B4B1B69002B04D00A480A21FFF7FC
:1013E000C9FB10BDFFF7F0FF0400032100F00CF86B
:1013F0000348102303222100FFF7C8FDEDE7C04694
:101400003C0C00200C1D002010B5024A0248FFF7DA
:10141000D1F810BD2C710010681600200200436A3C
:10142000906A1900536A9942FAD17047416A00E004
:10143000416A9942FCD300E0416A994202D1816A33
:101440009142F9D37047000010B50248FFF7E6FF5C
:1014500010BDC0460040054010B502000B00024818
:10146000FFF7E4FF10BDC04600400540F8B5D64682
:10147000474680B506000D00170098464400241822
:10148000A400294B9C4664446368089A934200D2A6
:101490006260331FDBB29A46012B2ED980221201E3
:1014A000C0239B01E3181A60204BB200D1580029D9
:1014B00007D0586900F0C8FA013043001B18033BFD
:1014C000FDD27F0123685F40E0233B408022520130
:1014D000A21813605346012B1AD980239B01E318ED
:1014E000802212011A60089B6360104BB6004246CE
:1014F000F250C0BCBA46B046F8BD012DCED1032291
:10150000C0239B01E3181A60A368DB07FCD5D8E76A
:101510002168694003230B401360A3680122AA409D
:101520001A42FAD0D9E7C046008000406C1600206D
:10153000F0B583B005000E0017001800089900F000
:1015400083FA0300089A140200943A00310028003C
:10155000FFF78CFF03B0F0BD10B582B080246400AB
:101560000094FFF783FF02B010BD0000014B800024
:10157000C05870476C160020F0B5C64600B5040090
:101580000E0017001D00374800F05EFA8046364B0B
:10159000FA18364B9A4239D80100380000F054FA54
:1015A0000200103A98235B009A4235D86B1E062B36
:1015B00038D8069B013B062B34D83F09474537D323
:1015C0002D04069B1B031D432368002B36DB284B91
:1015D0009C4244D00C2201239340264A1360264AA1
:1015E0001360264A1268190091430A1EF9D1266039
:1015F000A060234BE31821321A602268002AFCDA2B
:10160000E56008221A6080BCB846F0BD1D4B1E4A3A
:101610001E48112102F0B8FA1D4B1B4A1B48192124
:1016200002F0B2FA1B4B184A18481C2102F0ACFA1F
:10163000194B154A1548232102F0A6FA22683F23C8
:101640001340B342C3D1A3681B051B0D8342BED117
:10165000E368EE22D2021340AB42B8D1D3E70D22A9
:10166000B9E7C046001BB70080E84BD380F8A93229
:1016700000C0024000E0004000F0004008C0004010
:101680000430000050710010B4790010A0710010F7
:10169000E87100100472001050720010024B1A68BA
:1016A000024B5A607047C046C81A002000800540AF
:1016B00010B5184B8022D2051A60174B174A1A60D2
:1016C00000290AD0164BE022D2041A60002809D162
:1016D000134B802212061A6010BD0E4BE022D2047A
:1016E0001A60F3E743011B1A9B001A18D2000D4938
:1016F0000A6018180001086080235B04984201D337
:10170000094A0A60FFF7CAFF054B8022D2051A601A
:10171000E2E7C04600B0054008200140FCFF0100A0
:1017200000A00540C81A0020FFFFFF0010B503000D
:1017300010000C4A8024E4051460002B0DD0012217
:101740001343094A094CD461094C5C40146251624C
:1017500093620021FFF7ACFF10BD034B0022DA615A
:10176000F7E7C04600B0054000800540D3C007B091
:101770002D3FF84F80239B000B43014AD3627047F3
:101780000080054010B5010018231B881422108822
:10179000984710BD10B5010018231B881622108829
:1017A000984710BDF0B5C64600B507000E000025ED
:1017B0000123984600E00135B5420AD2AC003C193D
:1017C0002068FFF7DFFF20600028F4D1002398464F
:1017D000F1E7404680BCB846F0BD000070B504009B
:1017E0000D000648FFF7CEFF0300002C03DB0120AD
:1017F000A040290098470020FBE7C0465542000062
:10180000064BAA2212011A602F22DA60044B054A05
:101810001A60024B5B68002BFBDA70470040024005
:101820000060024000B0FA0010B5040001E008CCEE
:101830009847024B9C42FAD310BDC046E46C00109E
:101840007047000010B50248FFF7EEFF10BDC0461C
:10185000A86C0010054B064A1A60064B064A1A602F
:10186000064B1A68044B9343FAD1704700E00040DE
:10187000BFCDFBFE00F00040FE7F3C0008C00040F2
:10188000044BDB6C002B03D1034B8022D2021A6085
:101890007047C046000011504C201150044B054ABF
:1018A0001A60054B1B68DB43DB01FAD17047C04669
:1018B00000F00040FFFFFF0108C00040034B402242
:1018C0009A675A671A67DA667047C04600F00140A7
:1018D00010B5FEF7D1FE10BD70B5044DA968044CDB
:1018E000C022200001F068F8AC6070BD00ED00E09F
:1018F0000000002070B50420FFF738FE064900F014
:10190000A3F805000024002C00DD70BDE0B2290022
:10191000FFF730FF0134F6E740420F0030B583B0E7
:10192000274B00229A67FFF76BFF264B01221A60B4
:10193000234B5B6C012BFBD1234B03221A60204B02
:101940009B6B012BFBD10133009304331F4A012110
:101950001F48FFF711FE052300931E4A01211E4870
:10196000FFF70AFE1D4B002202210420FFF7F4FDC1
:101970001B4D2B00002201210520FFF7EDFD194C26
:101980002300002200210720FFF7E6FD23000022AC
:1019900000210820FFF7E0FD8023DB0000932300F7
:1019A000002200210920FFF7C3FD2B0000220021A7
:1019B0000620FFF7D1FDFFF79DFF03B030BDC04605
:1019C000008000403CB0004030B00040002F68591B
:1019D00000800240008C864700C00240001BB70018
:1019E00040597307006CDC0201480421014B184781
:1019F000600C0020A5170010124A936F9B0815D2A7
:101A00009066D166002905D0FFE7FFE7FFE7516F39
:101A1000106F704704B580210906C2175140002895
:101A200000D0C84305F0F8F8002104BDF0B5146EED
:101A3000556E576F166FFFF7E3FF146655665767CD
:101A40001667F0BD000000D0114A936F9B0813D2B7
:101A500010665166002905D0FFE7FFE7FFE7516FE9
:101A6000106F704704B5002801D00020C04305F076
:101A7000D3F8002104BDC046F0B5146E556E576F03
:101A8000166FFFF7E5FF1466556657671667F0BDDA
:101A9000000000D094464A4A926F9208624601D2F2
:101AA00028E0C046F0B5464E346E756E776F366FDF
:101AB00000F020F89446424A146655665767166748
:101AC0006246F0BD94463E4A926F9208624601D249
:101AD00054E0C046F0B53A4E346E756E776F366F8F
:101AE00000F04CF89446364A1466556657671667F8
:101AF0006246F0BD002B24DB11D000293EDA00B590
:101B0000C943404200D1013100F038F8C943404296
:101B100000D10131DB43524200D1013300BD002A24
:101B2000EBD1002801D1002905D00020C90FC90739
:101B300001D1C043410800B505F05EF80022002342
:101B400000BD00B500290ADBDB43524200D101335E
:101B500000F014F8C943404200D1013100BDC9432F
:101B6000404200D10131DB43524200D1013300F049
:101B700005F8DB43524200D1013300BD002923D1D7
:101B8000002B18D1002A0CD0BC460D4F38667A665F
:101B900000210023FFE7FFE7FFE77A6F386F674612
:101BA0007047002801D00748010000B505F024F86F
:101BB0000022002300BD02000B000020002170471E
:101BC000000000D0FFFFFFFF002B00D0BFE0130C90
:101BD00028D1002AE7D080B4114F39667A66FFE732
:101BE000FFE730B4040C7B6F396F1B0423433B6663
:101BF0007A66FFE7FFE7FFE7C04684B27B6F3D6F81
:101C00001B0423433B667A66FFE7FFE7C0460023D9
:101C10002C042D0C7A6F386F00196941B0BC7047E5
:101C2000000000D0F0B594460025140E01D1120238
:101C30000835140F01D112010435940F01D192001F
:101C40000235D40F01D152000135D40B0134254F98
:101C50007C66254C3C660E0C93B2FFE7FFE7FFE77E
:101C60003C6F6643360C7703BE467343DF0B5B0461
:101C7000C01AB941130C7343DB18C91ACE08664366
:101C8000360CB64493B273431F0F1B01C01AB941FF
:101C9000130C73431F0B1B05C01AB941860D8F022D
:101CA0003E436643360C092D24DB520A7243801AE8
:101CB0007703460A6643360C16235B1BDE40DF4083
:101CC000BF1964466643821B704604350633010023
:101CD000D940A840C01900D30131A24206D2002346
:101CE000F0BD0000000000D0FFFFFFFF121B01301D
:101CF000F3D3F1E709277F1BFE406446A2B272438B
:101D0000801A00D20139220C7243130C1204821A79
:101D100099410B007046043513370100F940A84083
:101D2000801900D30131002B02D1A2420AD2F0BDAA
:101D3000013000D30131121BFAD2013BF8D1A2428B
:101D400000D2F0BD013000D30131121BF7E7F0B52E
:101D50001C0C00D080E00CB400251C0A04D11B022E
:101D6000160E3343120208351C0B04D11B01160F4B
:101D70003343120104359C0B04D19B00960F33436F
:101D800092000235DC0B02D192185B4101351C0038
:101D9000971864410134464F7C66464C3C660E0CF5
:101DA000FFE7FFE7FFE7C0463C6F6643360C77036B
:101DB000BE4697B27743C01B00D20139C01B00D288
:101DC00001399FB27743C91BC91B170C77437E04A7
:101DD000FF0B801BB941CE086643360C0C2D33DB5C
:101DE000B644120B1F053A431B0B97B27743C01B37
:101DF00000D201399FB27743C91B170C77433E04C9
:101E00003F0C801BB941860D8F023E436643292754
:101E10007F1BFE400C3D7746AF40BF1930BCA2B2DD
:101E2000ABB272437343801A9941220C7243130C74
:101E30001204801A994102000B000137001BA941CE
:101E4000F9D2781E0021F0BD0C277F1BFE4077469B
:101E50007F0BAF40FF19E0E700245D1C07D0144F53
:101E60007D663966FFE7FFE7FFE7FFE73C6F95B266
:101E70009EB265436643401BB141150C1E0C654381
:101E8000664336042F0C3E432D04401BB14199425A
:101E900004D202000B0020000021F0BD01D19042CD
:101EA000F7D3801A994101349942F2D3F6E7000042
:101EB000000000D0FFFFFFFF48404140484018B4F9
:101EC0001B4B5B68FC46019308BD04DF2B2200100E
:101ED00018B4174B1B68FC46019308BD00DF352280
:101EE00000109446134A926F920809D2624618B4C1
:101EF0000F4BDB68FC46019308BD0CDFED2400109E
:101F00000C4AF0B5146E556E576F166F6246FFF7A8
:101F1000EEFF084A1466556657671667F0BD18B499
:101F2000034B9B68FC46019308BD08DF912300101A
:101F3000081B0020000000D0FFB550404240504038
:101F400059404B40594000E0FFB5154F4C00640D1F
:101F500003D0BC4204D10C0314D80020090D09059C
:101F60005C00640D03D0BC4204D11C030AD80022DB
:101F70001B0D1B0501264B4009D44B4003D58B425A
:101F800000D18242FFBD9942FCD19042FFBD0B437C
:101F9000DB1803431343F5D0C9434918FFBD0000C4
:101FA000FF07000000B5FFF7CFFF804100BDC0462E
:101FB00000B5FFF7C9FF01D9002000BD012000BD19
:101FC00000B5FFF7B9FF01D9002000BD012000BD19
:101FD00000B5FFF7B1FF804100BD012040054A0078
:101FE000121804D85A00121801D800207047012096
:101FF000704700000021002805D17047C1174840F4
:10200000401AFAD0C90713B5064B1B6898470CBC99
:10201000441CA2401005120B0349091B0905194372
:10202000114310BD081C00201F04000010B54C0017
:10203000620D8023D218DB00D21A5B057E2A10DDE8
:102040009E3A13DACC170903490819435242D1408A
:10205000640001341532202A05DAD0400843604379
:1020600010BD002010BD0846604310BDC80FC01849
:10207000013810BD18B4044B5B6AFC46019308BDDF
:1020800024DF9D2600100000081B002070B51323DC
:102090001C78012C12D0012C12DC214B214A9364B4
:1020A0002148FFF76FFB214B186070BD1C491D4A8A
:1020B0009800815001331F2BF8D9ECE70023FAE791
:1020C0001B48FFF767FB05001A48FFF763FB023860
:1020D00003789B007F2B09DD12488022290000F045
:1020E0006BFC022C08D0022CDADCD6E7124B134A28
:1020F0001348332101F048FD124B1A88B5231B0207
:102100009A4209D1104B1A88104B9A4204D1104BB5
:102110001A88104B9A42E6D00020FEF71DFAC046FE
:10212000F1210010081B00204C330000081C002087
:1021300053440000534600006C720010C079001038
:10214000B072001054380000D83800004946000032
:102150009C38000059460000F0B5C64600B50600A0
:102160000F000B0D5B055A0D002B25D01E4BD2180E
:102170002AD43424A31A9846002B22DD203B28D4ED
:1021800001259D402B0001254446A5402A0001243D
:102190006442E517A4185D41002903DA24184D4173
:1021A00026002F00002554429D4133002340180093
:1021B0003B002B40190004E00022C90FCB071000A0
:1021C000190080BCB846F0BD002909DA0020074993
:1021D000F7E720254346ED1A0124EC402300D2E71F
:1021E00000200021EDE7C04601FCFFFF0000F0BF2A
:1021F00007B56046002800D100BE01880A0A0230F7
:10220000DF2AFAD1C9B2820804D3028840880004C8
:10221000104300E00068024A5050039007BD0000E0
:10222000081B00200FB403BC0CBCF0B50124E4076C
:10223000634000E0F0B50C0DCF0F661E3605891B1C
:10224000640503D3C943404200D30131640D03D078
:10225000661CF60A07D0E41B00207F00791C890762
:102260008912803C24031D0DDF0F6E1E36059B1B5B
:102270006D0503D3DB43524200D301336D0D03D010
:102280006E1CF60A07D0ED1B00227F007B1C9B070B
:102290009B12803D2D032F1B661B58D4A446202E75
:1022A00046DA20371400BC401D00BD40F2403341E7
:1022B0002A4380185941CB0F05D0C943C04300229F
:1022C00064425041514162464D0D28D10D0D07D158
:1022D00000281FD0241940414941013A0D0DF9D081
:1022E000640006D3013000D30131002C01D1400835
:1022F0004000013A0BD4941CE40A04D112051144A5
:10230000DB071944F0BDD907204B194300E0D9077A
:102310000020F0BD0029DDD1002CDBD1F0BD013261
:10232000C6074008CD0728434908002EE1D0D9E769
:102330003C2E29DA203E40371400BC4000D0012456
:10234000F24014431A00BB401C43D317ACE7AC4621
:10235000202F08DA20360400B4400D00B540F840C4
:1023600039412843A5E73C2F0CDA203F40360400D2
:10237000B44000D00124F84004430800B1400C43AD
:10238000C117EAE710001900002494E70000F07F6D
:10239000F0B50C0D661E3605891BE60A6405640D52
:1023A00002D0651CED0A04D0002001210905803C03
:1023B0002403A4461C0D671E3F05DB1BE70A6405CA
:1023C000640D02D0651CED0A04D0002201231B0518
:1023D000803C24037740644497B484B296B274433B
:1023E000070C7E43150C6F4380B26843361802D346
:1023F000012000043F183004350C00197D4184464B
:1024000088B29AB250430C0C62431F0C7C438EB2CC
:102410007E43921902D301263604A4191604170C20
:102420003618674101BC81B29AB25143040C624331
:102430001B0C5C4380B25843121802D301200004E5
:1024400024181004130C401863412D185E4100201D
:10245000474106BC88B293B258430C0C6343120C3C
:10246000544389B251435B1802D301210904641813
:1024700019041A0C091862416D1856410020474191
:1024800018BCF902720D1143F0026A0D1043ED02FF
:102490000A0D03D16D1940414941013B124E9B1B6E
:1024A0007600B3420ED26D0007D301300026714191
:1024B0006646354301D1400840001B05C918E407B2
:1024C0002144F0BD0BDA013306D1013004D10131D2
:1024D0004F0D01D04908F2E7E1070020F0BD0136B9
:1024E00031050020EBE70000FF030000F0B51C0DF4
:1024F000671E3F05DB1BE70A6405640D02D0661CFE
:10250000F60A04D0002201231B05803C2403D025B9
:102510002D060026F6432E661E096E66CE0FF619AE
:10252000B44649004F0D02D07E1CF60A03D00020AD
:102530000021403F3F033E1BB600B444013F7F05EE
:10254000C91B49082E6F013676089C02950D25435C
:102550007543ED137543AD1301356D10F603761B0E
:102560000CB4CC02450D2C43A2B2B3B25A43270C93
:102570007B43350C6F43A4B26C431B1902D3012477
:1025800024043F191C041D0CA4187D4124196D411D
:10259000009A91B2ACB26143170C7C432B0C5F43A1
:1025A00092B25A43A41802D301221204BF18220483
:1025B000230C52187B41019C6C431B19520ED9010C
:1025C0000A434401A01A81B2B2B2514303145A43E0
:1025D000360C734387B27743D617D21900277E4152
:1025E00036049B191704160C7F185E417316ED18FC
:1025F000F301002680337541A90F06D16400690AF2
:10260000E8055B0A184309D22FE004229444803382
:102610007541A90AA8059B0A184326D340414941A0
:102620002404009A019B0D005543641B4343E41AA4
:1026300095B286B27543170C7E43030C5F4392B28A
:102640005A43B61802D301221204BF183204330CC5
:1026500052197B4152429C41002C02D4002201308D
:1026600051414008CA071043490802B06246D707E3
:102670009210084BD218084B9A4203D212058918BF
:10268000C919F0BD0020002A01DC3900F0BD01337A
:102690001905F5E7FD030000FE070000002200B564
:1026A000203200F004F8080000BD000000220B15E5
:1026B0000AD410B5944600F031F81414013400DA4D
:1026C0000021CB17144C20470020002170476244A2
:1026D000343A0CD40C2A07DA04009140904052425C
:1026E0002032D440214310BDD843D94310BD2032FD
:1026F00007D40C469440524220321141D04020432E
:1027000010BD0800C917203203D4524220321041B4
:1027100010BD1800190010BDCF2600100A0DCC0FF7
:10272000531E1B05C91A520503D3C943404200D3A7
:102730000131520D03D0531CDB0A07D0121B0020BD
:102740006400611C89078912803A1203014BD21A76
:1027500070470000FF03000051434343C9188C46F3
:10276000110C83B24B4310B4040C614392B280B29B
:10277000504362431C041B0C001910BC5941130444
:10278000120CC0185141614470470000484041405C
:10279000484000239C46114B5B68184700239C4629
:1027A0000E4B1B6818470E4A936F9B0804D20023F8
:1027B0009C460A4BDB681847F0B5146E556E576F90
:1027C000166FFFF7F4FF064A1466556657671667DB
:1027D000F0BD00239C46014B9B6818470C1C002051
:1027E000000000D0C10FC90700D54042002817D013
:1027F000F44603B40B4B1B68984706BC81409E38D7
:102800004042803107D20B0607D04900490AC00573
:102810001043084360470130F8E7490A8902F5E7A9
:1028200070470000081C0020034BDB6FFC46184774
:102830007CDF6D29001000000C1C002070B51323F4
:102840001E782A48FEF7A6FF0500012E11D0012EA2
:1028500009DDAB1E1B789B007F2B40DD24488022C6
:10286000290000F0A9F82348FEF78CFF224B1860DE
:1028700070BD1F485422290000F09EF81F4B1A8893
:102880001F4B9A421CD1A7239B011A881D4B9A42C9
:1028900016D11D4B1A881D4B9A4211D11C4B1A8818
:1028A00094239B019A420BD11A4B1A881A4B9A42D5
:1028B00006D11A4B1A681A4B9A4201D1152307E028
:1028C0001848FDF749FE184C094A99008C5001330D
:1028D0001F2BF8D9144B064A1362D361B7E7134B89
:1028E000134A1448422101F04FF9C04653460000F4
:1028F0000C1C00204C330000081C0020EE290000B6
:10290000C40F0000C20D0000962B0000C0B50000EF
:10291000182B0000CC2A000010B50000FC2C000091
:1029200051ED8764F8730010392900100873001006
:10293000D47900103C73001007B56046002800D120
:1029400000BE01880A0A0230DF2AFAD1C9B2820821
:1029500004D3028840880004104300E00068024A63
:102960005050039007BD00000C1C0020C30FDB0774
:1029700041000A0E07D0FF2A08D00909054A891824
:102980001943400770471900002070470249C918D1
:10299000FAE70000000000380000F07F0148042141
:1029A000014B1847700C0020A5170010014B1B6845
:1029B00018470000700C0020014B5B6818470000AE
:1029C000700C0020704710B5002802D00B684968D1
:1029D000984710BD0100002007E083001B185B0032
:1029E000501C08601078C01830380A681378303BE3
:1029F000DBB2092BF1D97047F0B5DE4657464E469B
:102A00004546E0B583B093461F000C9B9A460D9C4B
:102A10000E9B99460F9B9B0703D0B8460F000600FC
:102A200022E00192A34688464E46B9460700B442CA
:102A300007D2551C4B4641462020B84701342A0096
:102A4000F5E73D004F465C46019B9B46B146464636
:102A5000B84637002E0007E0013C551C5346185D70
:102A600043463900B0472A00002CF5D135003E001E
:102A700047460F9B9B0707D4100003B0F0BCBB4632
:102A8000B246A946A046F0BDB0464E46B9462F0014
:102A90005D46531BB342EFD2541C4B4641462020A7
:102AA000B8472200F5E7F0B5CE46474680B585B079
:102AB000944698460C9D0D9C0EAB1B789946109A37
:102AC000119B129EB7071CD4002B0CD0F7070AD518
:102AD0004F46002F02D10C37374204D0013B02E0B1
:102AE00030272F550134944201D21F2CF8D9F70713
:102AF00007D59C4205D21F2C03D830272F5501340F
:102B0000F5E7F70612D5770505D4002C03D09442DB
:102B100021D09C421FD00F9A102A32D00F9A022A3D
:102B200037D01F2C0AD830222A5501341F2C05D843
:102B30004A46002A33D02D222A55013403960293A7
:102B40000194009543466246FFF756FF05B0C0BCAE
:102B5000B946B046F0BD621E012C10D00F9F102F59
:102B60000BD014000F9A102AD8D1B206D6D51F2C3C
:102B7000D4D858222A550134D3E7023CCBE71400BD
:102B8000C9E7B206EED41F2CECD878222A550134BE
:102B9000C7E71F2CD2D860322A550134C1E772072B
:102BA00003D52B222A550134C8E73207C6D5202287
:102BB0002A550134C2E7F0B5DE4657464E46454633
:102BC000E0B593B081468A46089209931CAB10CBBE
:102BD0001B789B461E9D219B9846002C03D11023F9
:102BE00042469A4390468023DB0046461E404246BA
:102BF0001A4212D0002C22D000260EE03033D9B277
:102C0000771C0AAB995529002000FEF71DFFAC4246
:102C100016D31F2F14D83E00040029002000FEF711
:102C200013FFCBB2092BE9D94246920605D54121C3
:102C3000C918C9B20A39C9B2E2E76121F8E7270029
:102C400043460693209B05931F9B049303955B4685
:102C5000029301970AAB0093099B089A5146484694
:102C6000FFF721FF13B0F0BCBB46B246A946A04611
:102C7000F0BDF0B5DE4657464E464546E0B597B046
:102C80000A900B910C929A46209B9946219F22AA6A
:102C900013789B46249B0993259C289B98464A467B
:102CA0003A4302D11032934398468022D2004546DF
:102CB0001540434613420AD04A463A4341D00025C4
:102CC0002E0053460D934D46099B9A461BE02E005D
:102CD00053460D934D46099B9A4614E03033DAB2C1
:102CE000731C99460EAB9A555246230028003900B2
:102CF000FEF7E8FEBC4226D819D04B461F2B1CD845
:102D00004E4605000F005246230028003900FEF70A
:102D1000D9FED3B2092BE1D94246920605D541220C
:102D2000D218D2B20A3AD2B2DAE76122F8E7AA455B
:102D3000E3D94E460D9B9A4608E04E460D9B9A46B7
:102D400004E0002602E04E460D9B9A464346069359
:102D5000279B0593269B0493099B03935B46029351
:102D600001960EAB009353460C9A0B990A98FFF705
:102D70009AFE17B0F0BCBB46B246A946A046F0BDCD
:102D8000F0B5DE4657464E464546E0B591B0804622
:102D900089460C929A461A9C1B9D22002B0020000B
:102DA0002900FFF71AF9002800D0ECE00122524276
:102DB000D44B20002900FFF70BF9002800D0E2E0F7
:102DC00001225242D04B20002900FFF7EBF80028E7
:102DD00000D0D8E00022002320002900FFF7E2F80D
:102DE000002800D0E4E0069407958023DB001E9ABB
:102DF0001A400D921E9A1A4201D106231C9306987E
:102E0000079902000B000892099303000A0002438D
:102E100000D1D9E0080D4005400DBC4EB4466044D9
:102E20000A03120B1E00BA4B13431F00FFF7E6F80C
:102E3000B84AB94BFFF773F8B84AB94BFFF748F8EF
:102E4000089009910022B74B30003900FFF737F89E
:102E5000B54AB64BFFF763F802000B0008980999D2
:102E6000FFF736F8FFF7E2F88346FFF7C7F80600EA
:102E70000F00AF4AAF4BFFF752F80022AE4BFFF7FF
:102E800027F8FFF7D3F80890AC4AAD4B3000390073
:102E9000FFF745F806000F000898FFF7AFF8A94ABA
:102EA000A94BFFF73CF802000B0030003900FFF798
:102EB00006F806000F0002000B00FFF730F80A903A
:102EC0000B91089BA14A944663440021002208917B
:102ED00009921B0509930023089332003B00300040
:102EE0003900FEF7F5FF0E900F9132003B000020F5
:102EF0008021C905FEF7E3FF06000F000022944B76
:102F00000A980B99FEF7EDFF0022924BFEF7E0FFC7
:102F100002000B000A980B99FEF7E3FF00228E4B8C
:102F2000FEF7D6FF02000B000A980B99FEF7D9FFB7
:102F300002000B0030003900FEF7CAFF02000B0050
:102F40000E980F99FEF7CDFF0022714BFEF7C0FFE0
:102F5000089A099BFEF7E3FF06000F000896099701
:102F6000069A079BFFF734F800282FD001235B4215
:102F70009C46E3440022774B30003900FEF7B1FF56
:102F80000890099122E01E9B04931D9B03931C9BB8
:102F900002930094019553460C9A4946404600F02E
:102FA000FFF811B0F0BCBB46B246A946A046F0BD42
:102FB0000021002206910792069480231B069C465E
:102FC000AC446346079310E700239B465B4663339C
:102FD000C62B20D804261E9B1B0528D5089A099BC2
:102FE000190011430FD05D4A5D4B06980799FEF713
:102FF000E7FF00287AD000225A4B06980799FEF77F
:10300000D1FF002872D01C9B5B4506DD5A469B1AF7
:10301000013B1C9303E00526DDE700231C9380237E
:10302000DB001E9A1A431E92002600239B461D9B1E
:103030009E4265D29F1B02231E9A1A400A921E9A34
:10304000134202D0002E00D000275B46002B07D091
:10305000089A099B06980799FEF743FF0690079187
:103060000022002320002900FEF79CFF002800D04A
:103070007CE03D4B1E9A1340049303971C9B0293E4
:10308000069B079C0093019453460C9A4946404680
:1030900000F086F8002E00D183E71E9B9B0671D5B9
:1030A0004525441C5346020049462800C0475A465D
:1030B000D317D2185A4005230593013E04960023E6
:1030C00003930A3302935B46DB0F0193009253464E
:1030D000220049464046FFF76EFD0A9B002B00D1B7
:1030E0005FE7020047460C9E1D9D53E01C9B002B92
:1030F0009DD00D9B002B9AD01C9B013B1C9396E707
:10310000002798E7FFFFEF7FFFFFEFFF01FCFFFFC6
:103110000000F03FFB799F501344D33FB3C8608B4E
:10312000288AC63F0000F83F61436F63A787D23FFC
:1031300071A379094F930A400000E03F1655B5BBD3
:10314000B16B0240EF39FAFE422EE63FFF0300006A
:1031500000002C4000002440000018402D431CEBD0
:10316000E2361A3F80842E41FFF7FFFF069C079D41
:103170002200290080200006844661440B0006924C
:10318000079376E765258CE7541C53464946202073
:10319000B8472200931BAB42F6D3100001E7C046AC
:1031A000F0B5DE4657464E464546E0B595B006902A
:1031B000079193469946209F1E9A1F9B1000190065
:1031C000FEF70BFF002831D101225242BF4B1E985F
:1031D0001F99FEF7E7FE002837D101225242BC4B6F
:1031E0001E981F99FEF7F4FE00283DD10022B94B2E
:1031F0001E981F99FEF7ECFE002850D10022B64B16
:103200001E981F99FEF7CEFE002848D10022002309
:103210001E981F99FEF7C6FE002850D1002398463D
:10322000229B5B0500D4B6E0002458E0229B039368
:10323000219B029303230193A84B00934B465A46CC
:1032400007990698FFF7D8FB0EE1229B0393219B79
:10325000029304230193A24B00934B465A460799CD
:103260000698FFF7C9FBFFE00423229A1A4022992F
:103270000B4210D09B4B002A0FD0042222990391BD
:1032800021990291019200934B465A46079906985C
:10329000FFF7B2FBE8E0944BEDE70322EEE7229B59
:1032A0000493219B039302971E9B1F9C0093019400
:1032B0004B465A4607990698FFF762FDD4E01E9ADE
:1032C0001F9B00200021FEF7FAFD1E901F91012395
:1032D0009846A5E70CAB30221A55013F01341F2C4C
:1032E00001D8092FF6D81E981F99FEF79FFE0500FA
:1032F000FEF784FE02000B001E981F99FEF7DFFD0B
:103300007A4BFA009B181A685B680A920B93FEF7D7
:1033100006FE08900991FEF7ADFE0600FEF76AFE74
:1033200002000B0008980999FEF7C9FD0890099161
:1033300000226F4BFEF74CFE00282ED001363000E5
:10334000FEF758FE02000B000A980B99FEF730FEBC
:10335000002801D001350026002F2CD12800FEF7CF
:103360004DFE02000B001E981F99FEF7A8FD0600F7
:103370000F0000225E4BFEF715FE002846D100220A
:103380005B4B30003900FEF723FE00283ED1EB07EF
:103390003CD501353AE0062746E70022544B089811
:1033A0000999FEF7FFFD0028D6D1002E01D0F307C2
:1033B000D2D50136D0E7AA461F2C11D8013F0A21E9
:1033C0003000FEF741FB651C30310CAB19550A216A
:1033D0003000FEF739FB092E0ED906002C00EBE772
:1033E00055461F2C0CD87B1E002F09D00CAA30216B
:1033F00011551F000134F4E72B0055461C00F0E77F
:103400001F2C03D80CAB2E221A5501341F2C10D8B8
:103410000A212800FEF7F0FA661C30310CAB195572
:103420000A212800FEF7E8FA051E01D03400EDE776
:1034300034000323229A1340012B1CD01F2C06D8E2
:103440004346002B32D00CAB2D221A550134229B5F
:103450000393219B029301940CAB00934B465A4675
:1034600007990698FFF7C8FA15B0F0BCBB46B246FC
:10347000A946A046F0BD219B002B13D04346002B4C
:1034800002D10C3313420FD0219B013B2193190031
:1034900003E00CAB30221A5501348C42CED21F2CE3
:1034A000F7D9CBE72199F8E72199F6E7229B5B074B
:1034B00004D50CAB2B221A550134C8E7229B1B07FD
:1034C000C5D50CAB20221A550134C0E7FFFFEFFF32
:1034D000FFFFEF7F65CDCD4165CDCDC1E07300101D
:1034E000E4730010D4730010DC730010D87B00105C
:1034F0000000E03FF0B5DE4657464E464546E0B593
:1035000093B08246884693461193002900D10DE37B
:1035100000255646119B1878002800D109E325287C
:1035200009D06C1C5B462A004146B047119B013311
:1035300011932500EEE701331193002720E00123CA
:103540001F4301321192012418E002231F4301326C
:103550001192012412E004231F430132119201242D
:103560000CE008231F4301321192012406E01023CE
:103570001F4301321192012400E00024002C09D0E5
:10358000119A1378203BD9B21029F6D88B00C8497C
:10359000CB589F46119B1A781300303BDBB2092BA6
:1035A00010D92A2A13D00B94119B1A782E2A1ED0D8
:1035B000119A1378683BD9B2122959D88B00BD49AA
:1035C000CB589F4611A8FFF705FA0B90ECE71C9B20
:1035D0001A1D1C921B68002B04DB0B93119B0133FB
:1035E0001193E1E7022217435B420B93F6E7802237
:1035F000D20017435A1C11925A781300303BDBB2A9
:10360000092B0BD92A2AD3D11C9B1A1D1C921C688A
:10361000002C08DB119B01331193C9E711A8FFF7B8
:10362000D9F90400C4E70024F4E780235B003B439E
:10363000511C119151786C2901D01F0018E0C02352
:103640009B001F430232119212E080233B43511C26
:1036500011915178682901D01F0009E0C0231F4350
:103660000232119204E080235B001F430132119269
:10367000119B1878672818D8252800D24CE203003F
:10368000253BDAB2422A00D946E293008A4AD3584F
:103690009F4680239B001F4301321192E8E780235D
:1036A0005B001F4301321192E2E7782800D933E230
:1036B000692800D230E20200693AD2B20123934075
:1036C0007E4A134211D11A0600D500E25B0500D4F0
:1036D00022E21C9B1A1D1C921B689A46002C00D0EB
:1036E000B2E10122524253468EE16F280ED006D835
:1036F00058283DD0622804D102239C4608E078284F
:1037000039D010239F43063B9C4601E008239C468A
:10371000582833D0692803D0642801D00C2297435D
:103720007A0501D50122974369282AD0642828D038
:10373000BA0500D59FE0FA0500D5C1E07A0600D4AD
:10374000D3E01C9A111D1C911168FF220A400597B5
:103750000B9B04930394634602930023019300920E
:103760005B462A0041463000FFF725FA050027E0B6
:1037700010239C46CCE710239C46C9E72022174320
:10378000C8E7BA0520D4FA0550D47A0666D51C9A43
:10379000111D1C911168FF220A40D01711184140D9
:1037A00005970B9B0493039463460293D20F0192F7
:1037B00000915B462A0041463000FFF7FCF9050006
:1037C000119B01331193A5E61C9A073207218A4306
:1037D000110008311C91116853689946DB170C934E
:1037E0000D930C9A0D9B100048400E904A46534092
:1037F0000F930E980F990C9A0D9B801A99410E9079
:103800000F9108970B9B079306946346049300233C
:1038100005934B46DA0F0292009001915B462A0015
:1038200041463000FFF725FA0500C9E71C9A111D33
:103830001C911268D0171118414005970B9B0493F7
:10384000039463460293D20F019200915B462A00D3
:1038500041463000FFF7AFF90500B1E73A0605D55C
:103860001C9A111D1C910023D25E96E71C9A111D13
:103870001C91126891E71C9A073207218A431100B4
:1038800008311C9108970B9B079306946346049399
:1038900000230593029353681268009201935B46DC
:1038A0002A0041463000FFF7E4F9050088E7C046EA
:1038B0003C7A0010807A0010CC7A00104190000011
:1038C0001C9A111D1C9105970B9B0493039463464E
:1038D000029300230193136800935B462A0041463C
:1038E0003000FFF768F905006AE73A0606D51C9A2A
:1038F000111D1C9112681204120C28E71C9A111D4C
:103900001C91126823E7462819D01C9B0733072215
:1039100093431A0008321C9204970B9A0392029464
:103920001A685B68009201935B462A0041463000AA
:10393000FFF736FC0500119B01331193EAE52023C4
:103940001F43E2E7672801D0472802D180231B01EB
:103950001F43452801D0472801D120231F431C9B2A
:103960000733072293431A0008321C9204970B9ADC
:10397000039202941A685B68009201935B462A00E6
:1039800041463000FFF7FCF90500119B013311930C
:10399000C0E502231A003A4091463B421DD0012463
:1039A0001C9B1A1D1C926F1C18785B462A0041460E
:1039B000B0474B46002B14D1119B013311933D00AE
:1039C000A8E5571C5B4641462020B04723003A003B
:1039D0005C1C9D42F5D81500E2E701232A000B9DEF
:1039E000F6E73A00B1460B9E06E0571C5B4641469F
:1039F0002020C8472C003A00651CA642F5D81700C5
:103A00004E46D9E701330A001978002902D0511E29
:103A1000002AF7D152469B1A8022D2003900114069
:103A20008946174202D0A34200D923000222110086
:103A3000394010913A4209D02A00250057469A464B
:103A400033004E46994621E022004CE62A004546C6
:103A5000A04606E0541C5B4629002020B0473B00EE
:103A600022005F1C0B999942F4D84446A8463B00BB
:103A7000250057469A4633004E46994606E01D00FB
:103A80000137541C5B464146C8472200387800285D
:103A900004D0002EF4D06B1E002DF0D1150053463B
:103AA0004E46109A002A03D1119B0133119331E540
:103AB0000B9F2A0006E0551C5B4641462020B0477C
:103AC00023002A005C1C9F42F5D81500ECE7212357
:103AD0003B431C9A111D1C91126805930823049303
:103AE0000394083302930023019300925B462A005B
:103AF00041463000FFF75FF80500119B0133119339
:103B000008E56C1C5B462A0041462520B047119B06
:103B1000013311932500FDE46C1C5B462A004146ED
:103B2000B047119B013311932500F3E40A4B9A46E9
:103B3000EEE4B2465D450DD35B465A1E5B464146F8
:103B40000020D047280013B0F0BCBB46B246A946BF
:103B5000A046F0BD2A00F1E7C529001000B585B0E8
:103B60000290039101210448009313004A4202A9E4
:103B7000FFF7C0FC05B000BDC729001000BEFDE77F
:103B800010B5FFF7FBFF000030B583B00D00190042
:103B9000002A0BD0074B084C019200932B00020027
:103BA000200000F05FF90120FFF7E8FF034B1A0047
:103BB000F1E7C046EC730010FC730010F8730010BE
:103BC00010B5EFF30583002B00D000BEFDF73AFEE1
:103BD000034C01E008CC9847024B9C42FAD310BD3D
:103BE000E46C0010EC6C001010B50300080011002C
:103BF0001B68984710BD0000F8B507000D001600BF
:103C0000437D002B02D0002400200CE0036811004B
:103C1000280098472DE03B7D10E03B6815480221C5
:103C20009847601C0134B44214DA002CF3DD2B19E0
:103C3000013B1B780D3B5A425341DBB22A5D0A2AF5
:103C4000F0D1002BEED1A042E7DA3B68211A281808
:103C50009847E2E7B04203DA3B68311A28189847E0
:103C6000002E06DDAD19013D2B780D3B5A42534124
:103C70003B75F8BD287C001070B505000368002B6B
:103C800016D00C4B1C6805E0290004C92000FFF782
:103C9000B3FF2469002C09D02368002BF9D0064B10
:103CA0001B68002BF0D0A342F3D1EDE700232B607B
:103CB00070BDC046BC160020C416002070B50500BB
:103CC0000C000B68802B05D023685A1C2260E41876
:103CD000257170BD0800FFF7CFFFF5E710B5FDF7C0
:103CE000B3FB074A002312184B41002B03DB0548A6
:103CF00002F0AAFF10BD01225242034BF7E7C04673
:103D000040420F00B80C0020FFFFFF7F10B50248B3
:103D100002F06AFF10BDC046B80C0020F0B5CE46D8
:103D2000474680B583B006000D0090461C00FFF7A3
:103D3000D5FF81466B1C05D0002C08D0184F194BBD
:103D40001C6807E0300002F017FF0500F4E7164F8B
:103D5000F5E72469002C17D02368002BF9D0134B0A
:103D60001B68002B01D0A342F3D12A0031002000B0
:103D7000B8474346002BECD06B46D91D0A230B7085
:103D800001222000B847E4E74B46002B05D128006C
:103D900003B0C0BCB946B046F0BDFFF7B7FFF6E7C9
:103DA000F93B0010BC160020E93B0010C4160020AF
:103DB000094A01E010331A001368002B08D083422F
:103DC000F8D1002907D1036913600023036102E0E1
:103DD000002900D010607047BC16002010B5064BBB
:103DE0001C6801E098472469002C03D06368002B0D
:103DF000F8D1F8E710BDC046BC16002010B500F0A1
:103E0000C9F910BD70B5050002F0B6FE040001232B
:103E1000012201002800FFF781FFFFF7DFFF2000EC
:103E200070BD000070B5A2B004000E00FFF756FF91
:103E30000500002301930A483300220001A9FFF77F
:103E40008DFE040001A8FFF717FFFFF7C7FF002D45
:103E500002D1200022B070BDFFF758FFF9E7C0463D
:103E6000BD3C00100FB400B583B004A901C9019195
:103E7000FFF7D8FF03B008BC04B018477047000034
:103E8000014B00221A7070472E1D00204B79FF2B2A
:103E90000CD18B79002B0BD1CB79012B0AD1082ABD
:103EA0000AD98A78054B1A70092000E00020704773
:103EB0000020FCE70020FAE70020F8E72E1D002094
:103EC0000120704710B5012928D1117953791B02BF
:103ED0000B43134909788B4201D000201FE053782F
:103EE000012B03D0022B12D0002018E09178D37858
:103EF0001B021943DB0507D5480A4A0A01231A4069
:103F00007E331940FDF76AFC01204042F5E7642248
:103F100000210020FDF70AFC012000E0012010BD77
:103F20002E1D002000487047F47C001010B51400CE
:103F3000012910D15378012B0FD1127963791B021B
:103F40001343072B01D0002006E0054A9F332100D0
:103F500001F046FB00E0012010BD0020FCE7C04658
:103F60004C7C001001230370004870472C7C00102B
:103F700010B50A784B781B0213438A7812041A434F
:103F8000CB781B0613439622D200934200D010BD7B
:103F90000120002211004042FDF720FC024B186076
:103FA000024B19607047C0465C1600206016002066
:103FB00010B5FDF749FA0E4A002312184B41002BA9
:103FC00012DB0C4802F040FE00280CD0012000213A
:103FD000404201F0CFF9002001F05AFC0028F5D151
:103FE000044802F001FE10BD01225242024BE8E7F4
:103FF00040420F00101D0020FFFFFF7F10B5024B55
:104000001878FCF7CFFB10BD2F1D00200268EFF3DE
:10401000108172B61368002BFCD0BFF35F8F416034
:104020007047000070B5144B1B68002B1AD0124C5F
:104030002000FFF7EBFF114B00221A702168636824
:10404000BFF35F8F0A6083F31088002400250C4BB8
:104050001878FCF783FB002808D1002400252000F5
:10406000290070BDFA24A4000025F0E7044B18785D
:10407000FCF798FBF3E7C046E81A0020301D00204B
:104080002F1D0020F0B585B0060014001D000CABFC
:104090001F78FDF7D9F922002B0012184B41002B95
:1040A00009DB02970B9901910A9900913000FDF705
:1040B00011F805B0F0BD01225242014BF1E7C046B4
:1040C000FFFFFF7FF0B5C64600B584B00500884607
:1040D00016001F000AAB1C78FCF794FF02940197AE
:1040E00000962A004346FFF7CDFF04B080BCB846D7
:1040F000F0BD000010B582B02048002102F094FD10
:1041000000281AD11E4B1B68002B14D01C4C200019
:10411000FFF77CFF1B4A137801214B40DBB20121E2
:10412000117021686268BFF35F8F0020086082F31E
:104130001088002B17D102B010BD01200021404291
:1041400001F018F9002001F07BFB04000B4802F09D
:104150004BFD002CEFD00C4B1B68002BEBD00B4A17
:1041600010689847E7E70A4A012300930023FA20E2
:1041700080000021FFF7A6FFDDE7C046101D0020EC
:10418000E81A0020301D00205C1600206016002078
:104190002540001010B582B0D0231B061C68FCF728
:1041A00031FFFDF711F8A0422ED1264B1B7802F00B
:1041B00043F8254B1B68002B2CD00120FCF7C4FCD6
:1041C000224C20702249FF231840FCF70DFB207879
:1041D0000121FCF7DDFA0520FCF7F4FA041E1DD0DE
:1041E0000120FCF737FA01001A4B1800FCF70CFD10
:1041F000194900220520FCF721FB18480121FFF78F
:10420000D7FD200002B010BD154B164A1648C1213B
:10421000FFF7BAFC0C48FCF7B5FCCEE70D480822C6
:104220000021FEF7C3FB114A012300930023FA206B
:1042300080000021FFF746FFC043C40F0028E0DAEA
:10424000DBE7C046F8800010101D00202F1D002065
:10425000F5400010E81A0020FD3F0010800C0020FF
:104260002C740010247D00103474001025400010C0
:1042700010B5002001F0C8FA10BD000070B50500AF
:104280000C00FFF7F5FF002834D0002001F0D8FA29
:10429000002832D0FDF7D8F81B4A002312184B41F2
:1042A000002B19DB194802F0CFFC002828D0FFF7BB
:1042B000DFFF002804D0002001F0C2FA00280FD14F
:1042C00001200021404201F055F8032464420F48C8
:1042D00002F08AFC200070BD012252420C4BE1E743
:1042E00022002900002001F0B7FA041EEFD10324B8
:1042F0006442ECE703246442ECE703246442E9E708
:1043000003246442E6E7C04640420F00101D00202F
:10431000FFFFFF7FF0B5C64600B580460C00FDF7F5
:1043200093F8314A002312184B41002B07DB2F482A
:1043300002F08AFC002806D180BCB846F0BD0122FC
:1043400052422B4BF3E7FFF793FF002849D1294B4B
:104350000020002118605960244802F045FCEBE77A
:1043600001200021404201F005F8002001F090FA00
:10437000FFF77EFF0028EFD0002001F013FB00289C
:1043800020D0A542E8DA661B002001F00BFB0200FA
:10439000864200DC3200002AE2D043465919002050
:1043A00001F0DCFA060001200021404200F0E2FFAB
:1043B000002001F06DFAAD19FDF746F80D4B1860BD
:1043C0005960DEE7FDF740F80A4B1E685F680A4A4D
:1043D000002392197B419942BED8D2D19042D0D9C4
:1043E000BAE70025CDE7C04640420F00101D00206F
:1043F000FFFFFF7F400E002020A10700004870470C
:10440000A07D0010004870474C7D001010B50400DE
:10441000154B1B78002B0ED0002C11D1134B144AD6
:104420005A80012301335B009BB21048C0229200E6
:104430001343038010BD0C48112100F025F8EBE771
:10444000052C0ED80B4BA400E4580023122BE9D8FE
:10445000E15C0029E6D00133044A58008152DBB206
:10446000F4E70020E6E7C046181D0020941600205F
:1044700009040000347D001010B5024800F032F845
:1044800010BDC046001B002010B5002901D000233C
:104490000AE0104B104A11483531FFF775FB002236
:1044A0000DE03732C25401334A1E9A420ED90F2B07
:1044B0000CD85A080A4CA45CDA07F0D40422144140
:1044C0000F222240092AECDC3032EBE7C01800232F
:1044D000037010BDC4740010B47D0010CC740010C3
:1044E000001B002030B589B0040004AD0D2200216E
:1044F0002800FEF75BFA0D2200216846FEF756FA07
:104500004B232B700D226946280002F065FB002327
:1045100004E05A1D69468A5CE2540133072BF8DD3A
:1045200009B030BD10B5038B3F333F2293430229BE
:1045300015D0124C2268C260D31823609C0610D19B
:104540000F4C6240634080246401A3420FD8890667
:10455000114380231B060B434268136010BD5B00B0
:10456000E7E7084B084A09485121FFF70DFB084BC4
:10457000054A06485321FFF707FBC046CC1A002026
:1045800000001050B8760010247E0010E87600106D
:104590004477001070B505007F230340C40958001C
:1045A00000194001244E80198570654265414570AF
:1045B0000025C5700183C276012C1AD0DE001F4988
:1045C0008C4666441C495D002D196D0149198E60A9
:1045D000194D5E0036197601AD19A96800250D60E8
:1045E000002B0CD1144A931900225A60144ADA6045
:1045F00070BDDE0013498C4666448660E8E7012CF6
:104600000ED05D1EED0010498C4665440A495B00E2
:104610001B195B01C9184D601100FFF783FFE7E725
:104620005D1EED0009498C46654403495B001B197A
:104630005B01C9184D60EFE7C816002084001050D8
:1046400000011050800010500C0010500800105055
:1046500010B504007F202040E4094000001940010B
:10466000024BC01800F032F910BDC046C816002039
:1046700010B5002804D101210520FCF789F810BDF0
:10468000034B044AD42104484900FFF77DFAC04691
:104690008C770010147E0010E876001010B500280A
:1046A00005D1002200218020FFF7D2FF10BD034B6F
:1046B000034AD92103484900FFF766FA8C770010B6
:1046C000047E0010E8760010024B80225202DA6469
:1046D0007047C0460020115070B5041E26D100F06E
:1046E000D3F8164D0C23AB671549FF220520FCF7C4
:1046F000A5F8144840220021FEF758F90022402175
:104700000020FFF747FF002240218020FFF742FFF3
:1047100002F0C2FA01232B6480239B05EB649023F3
:10472000094AEA502000FFF7CFFF70BD074B084A47
:1047300076210848FF31FFF727FAC04600001150E4
:1047400075040020C816002010D001008C770010DE
:10475000387E0010E8760010044B1970002904D050
:10476000034A902380218902D15070472A1D0020DE
:10477000002011500B785B0602D14B78052B00D03E
:1047800070478A78014B1A60FAE7C0460000115062
:1047900010B50A0000280DD18878097953791B02D9
:1047A0000B435B05590DD2789207920FFFF7F2FE8B
:1047B000012010BD034B044AF0210448FF31FFF7EC
:1047C000E3F9C0468C770010F47D0010E876001005
:1047D00010B502F061FA10BD10B504000800110018
:1047E0001A00002C03D1FFF733FF012010BD034B4B
:1047F000034AFE2103484900FFF7C6F98C770010F1
:10480000E47D0010E876001010B57F231800084002
:104810000B4205D1CB09012B0ED00222074B9A6621
:10482000C909400040184001054BC0188022120100
:10483000002102F021FA10BD0122EFE70020115003
:10484000C816002010B57F22100008400A4200D18F
:1048500010BDC909400040184001044BC018002396
:10486000C3700022024902F007FAF1E7C8160020DF
:10487000FFF7FFFF04E00A780270013101301A00EF
:10488000531E002AF7D1704710B580235B040A4AF3
:1048900013600A4A13600A4B1A6880235B0493432F
:1048A000F9D18022520100210648FEF77FF8064B1D
:1048B00009225A6710BDC04600E0004000F00040E9
:1048C00008C00040000010500000115070B50400F6
:1048D0000D001600837E002B17D1A6820023E382F1
:1048E0000133A3762561200002F08EF9002804D060
:1048F0000C4A902380218902D150200002F0C4F993
:1049000000280AD00123237770BD81780648FFF77D
:10491000A9FA200002F0A8F9DFE7200002F09CF9D4
:10492000F2E7C046002011507C78001070B50500F9
:10493000002408E09B1A5B01164A9B18DB682800DC
:1049400098470134E4B2144B1A782300511CA14259
:104950000DDBA242EED9114B1B6862019B18002BA4
:10496000ECD10F490F48104AFFF77CFA10E00F4CCA
:10497000542200212000FEF719F8201D1022FF21EB
:10498000FEF714F8200014302022FF21FEF70EF865
:1049900070BDC046B07F0010291D0020480E0020C9
:1049A000807F0010B47800101602000074110020FF
:1049B0000268EFF3108172B61368002BFCD0BFF3CE
:1049C0005F8F4160704710B5FFF7B0FF00F054FEF5
:1049D00010BD70B505000C001600486900F056FEC9
:1049E0006369320001212800984770BDF0B5DE46AA
:1049F00057464E464546E0B583B082460139C8B2B7
:104A0000FFF700FD002803D043789946022B0CD015
:104A100055495648564AFFF725FA002003B0F0BC26
:104A2000BB46B246A946A046F0BDC5796C1101222D
:104A3000504B1440240119781026B14321431970BA
:104A4000AD112A405201C9B22024A1430A431A7071
:104A5000060009368278C3781B02134383469B44C1
:104A60004B460193370066E0FB7899463A78BF18C9
:104A700068E03D493D48404AFFF7F4F90020CDE7A2
:104A8000009AD31A5B013D4E9E193369220039000A
:104A900050469847082801D9844216D20135EDB214
:104AA000374B1B7800955A1CAA423EDBAB42E7D934
:104AB000344B1B686E019E19002EE6D12A492B4803
:104AC000314AFFF7CFF90020A8E73400009E00909C
:104AD0004B46012B11D00020494681421BD9BB789F
:104AE0001B18DBB2234AD2181279FF2A0CD1214AB3
:104AF000D3181D710130C0B2EFE72169234A9142FA
:104B0000E9D1019B9946E6E717491848204AFFF783
:104B1000A9F9002082E71F482B00009C22003900E1
:104B200001F036FCA446674400E02E00144B1B78CD
:104B300001339E420FDC5F4514D27B780B2B93D060
:104B4000012399467A78042A93D15B46DA1B93B203
:104B500000251C00A4E7044904480F4AFFF782F926
:104B600000205BE7012059E7547F0010B478001063
:104B7000C703000074110020E2030000B07F0010A2
:104B8000291D0020480E0020EB030000495B0010A7
:104B90000A040000881100201904000070477047C3
:104BA000002070470020704770B505000C00CB78DE
:104BB00088780F2B53D89A002E498A589746FFF7CA
:104BC0001DFC021E05D012232100280000F008FD64
:104BD00046E0294929482A4AFFF744F900203FE0E6
:104BE000FFF7A0F9021E3CD08178C3781B020B436B
:104BF0002100280000F0F4FC32E0022B0CD0FFF77B
:104C0000D1FF021E2FD09178D3781B020B432100D5
:104C1000280000F0E5FC23E0FFF7F4FB021EF2D1D0
:104C200015491648174AFFF71DF9002018E02379A7
:104C3000617909021943FFF7E9FB021E15D00378D9
:104C40002100280000F0CCFC0AE0FFF7A9FF021EBB
:104C50000DD003782100280000F0C2FC00E0002005
:104C600070BD0020FCE70020FAE70020F8E70020F4
:104C7000F6E7C046547E00103C7F0010B478001068
:104C80002B040000520400007047704770477047C3
:104C9000024B5878431E9841C0B2704774110020EF
:104CA000024B18784007C00F7047C04674110020AF
:104CB000034B1878FF38431E9841C0B27047C04676
:104CC000B40C002070B50500FFF7F2FF061E01D0FE
:104CD000300070BD254854220021FDF767FE244BAB
:104CE00000221A70234C2000FBF74CFF224B1C6063
:104CF000224C2000FBF792FF143C200001F0DFFE65
:104D00001F4B1C601F4B002B04D01F48FFF72AF9D4
:104D10001E4B1860002409E09B1A5B011C4A9B187B
:104D20005B68002B10D098470134E4B2164B1A7818
:104D30002300511CA1420EDBA242EDD9134B1B688C
:104D400062019B18002BEBD1F1221249124852004C
:104D5000FFF788F8BCE7114B1D702800FFF7BCFC7B
:104D60002800FFF785FC0126B2E7C0467411002039
:104D70002B1D00202C110020C8110020AC0C00209D
:104D8000CC110020653F0010291D0020480E002096
:104D9000B07F0010A47F0010B4780010B40C002085
:104DA00070B50D00104B1E788B7870221A420DD111
:104DB0000E4B9978280001F095FA041E0DD02900B9
:104DC0003000FFF7E5FC0400200070BD08490948E9
:104DD000094AFFF747F80024F6E705490548074A5E
:104DE000FFF740F8F0E7C046B40C00207411002033
:104DF0000C7F0010B4780010FC040000FD040000DB
:104E0000F0B5D6464F464646C0B581460C00170061
:104E10009846089B9A46002517E09B221749184898
:104E2000D200FFF71FF800263000E0BCBA46B146BA
:104E3000A846F0BD11491248124AFFF713F8F3E7EC
:104E4000099A13702378E4180135AF4214DD6378B2
:104E5000052BE2D1E1788907890F4145DDD1210099
:104E60004846FFF79DFF061EE4D0A378DA09012A21
:104E7000E6D052461370E5E70126D5E71C7F001007
:104E8000B4780010D904000010B57F200840C9098B
:104E9000400040183030044BC0180430034B1968F0
:104EA00001F0DCF910BDC04674110020C8110020CB
:104EB00010B57F200840C909400040183030044B2D
:104EC000C0180430034B196801F0F0F910BDC0465A
:104ED00074110020C8110020F0B5C64600B582B09C
:104EE00001931A4800787F250D40CE09184C6F00B9
:104EF000E419A41930342479E4071DD4144C6F004C
:104F0000E419A419303423790127BC4667463B4392
:104F10002371019BFFF760FC002813D10C4B6D003F
:104F20005B199B1930331A7901218A431A711A7956
:104F300003318A431A7105E006490748074AFEF71C
:104F400091FF002002B080BCB846F0BDB40C002038
:104F500074110020FC7E0010B47800102A050000B7
:104F600070B50A4B18787F240C40CD09FFF74CFC34
:104F7000074A640013195B1930331A7902210A4376
:104F80001A711A7901210A431A7170BDB40C0020FC
:104F90007411002070B50A4B18787F240C40CD099D
:104FA000FFF750FC074A640013195B1930331A7974
:104FB00002218A431A711A7901398A431A7170BD24
:104FC000B40C0020741100207F220A40C909044B50
:104FD00052009B185B18303318798007C00F704758
:104FE00074110020F0B5C64600B582B005000C0073
:104FF000002000F04BFB237860221A40602A1AD070
:10500000402A1FD02378DB06DB0E012B00D1D5E030
:10501000022B00D115E1002B00D07BE1202A1BD010
:10502000002A00D080E16378092B00D97EE19B0043
:10503000C54AD3589F46C549C548C64AFEF712FF20
:10504000002668E1C44800F021FB2200012128006D
:10505000FEF76CFF06005EE123790F2B00D95FE1BC
:10506000BE4AD3181B79BE4A1278934207D2BD4A72
:1050700011685B01C918002909D100264BE1511CB8
:10508000994200DA4EE19B1A5B01B7495918220098
:105090002800FFF79EFC06003DE1200000F0FCFA2E
:1050A000A1782800FFF7FAFAAC4A137802210B43E3
:1050B000137001262FE1A94B5B786A460632137004
:1050C00001232100280000F08BFA012623E1A678B5
:1050D000A24B5B78DBB2B3422BD0A04B5B78002BAA
:1050E0000CD19E4B5E70002E21D031002800FFF7BE
:1050F0007DFC061E12D0FFF7C7FD1AE00021280034
:10510000FFF72AFB2800FFF763FB944FBB78984614
:105110002800FFF70BFC4346BB70E2E78B498C4845
:10512000924AFEF79FFE8D4B00225A70F3E0FFF784
:10513000ACFD2100280000F03FFA0126EBE0210041
:105140002800FFF731FD0600E5E0A278E3781B02B6
:105150001343012B01D00026DDE0804A137808219B
:105160000B4313702100280000F026FA0126D2E03C
:10517000A278E3781B021343012B01D00026CAE07A
:10518000764A137808218B4313702100280000F021
:1051900013FA0126BFE0714B1A78510992080123D6
:1051A0000B4002210A4013436A4606321380022351
:1051B0002100280000F014FA0126ACE023790F2B1F
:1051C00000D9B5E0654AD3181B79654A1278934235
:1051D00023D2644A11685B01C918002900D1A9E0F3
:1051E00022002800FFF7F5FB061E00D093E023788D
:1051F00060221A4200D08EE063780A3B012B00D96E
:1052000089E0002000F042FA63780A2B0ED02100DA
:10521000280000F0D1F901267DE0511C994200DA06
:105220008AE09B1A5B0150495918D9E76B469A1DD1
:105230000023137001332100280000F0D1F901365A
:1052400069E021797F200840CE0970230B4217D1F5
:10525000424B40001B189B191B7D4148007883423C
:1052600015D2404806685B01F618002A19D0002EB6
:1052700064D0220031002800FFF7ABFB06004AE0B3
:10528000324933483A4AFEF7EDFD002643E0461C1A
:105290009E4204DB1B1A5B01334E9E19E5E7002694
:1052A000E3E76378012B10D0032B0ED0002B47D1FE
:1052B0002800FFF789FE6B469A1D1080022321000B
:1052C000280000F08DF9012625E0A078E27812028E
:1052D000024304D1012B19D02800FFF741FE002E14
:1052E00030D0220031002800FFF773FB002000F0CF
:1052F000CDF91A4B35229B5CDB07DE0F002B0AD160
:105300002100280000F058F9012604E02800FFF7EA
:1053100041FEE4E70026300002B080BCB846F0BD94
:105320000026F8E70026F6E70026F4E70026F2E775
:105330000026F0E70026EEE70026ECE70026EAE785
:105340000026E8E70126E6E7B07E0010687F00103F
:10535000B4780010C50200002D3F00107411002029
:10536000291D0020480E0020B07F0010150300000A
:105370008603000030B585B0FFF79AFC002808D1FD
:1053800005B030BD01AC2078FFF71DFB2279604BE2
:105390009A70604B1C6820001430FFF709FB01A9CC
:1053A000200001F02FFB6269A369BFF35F8F00212A
:1053B000116083F310880028E2D001AB5B78082BE2
:1053C000E7D89B00544AD3589F4601AB1878FFF7A3
:1053D000FAFAFFF75AFCDCE7504B1B78002B2DD074
:1053E0004E4A1378013BDBB213701378002BD0D1F7
:1053F000474B1A78012401210A431A703422995C20
:10540000A1439954995C0420814399540132995CD9
:10541000A1439954995C8143995401AB187802A92E
:10542000FFF7E0FD0028B4D101AC20780021FFF7A0
:10543000EBF920788021FFF7E7F9AAE738493948E6
:10544000394AFEF70FFD9BE701AB19797F220A402D
:10545000CC092F4B50001B181B193033187901252C
:10546000A843187118790335A8431871002A15D07C
:10547000274B52009B181B191B7D2C4A1278934214
:1054800013D22B4A12685B01D318002B15D09C69EC
:1054900001A84279039B0078A0477AE701A84279E6
:1054A000039B007800F006F973E7501C984204DB78
:1054B0009B1A5B011F4A9B18E9E7194919481E4AC4
:1054C000FEF7D0FC5CE7124B1B78DB0700D460E7EB
:1054D0000F4B18780007C00FFFF7D8FB59E70C4BAC
:1054E0001B78DB0700D454E7FFF7D1FB51E7029BA1
:1054F000002B00D14DE7039898474AE7044BDB782F
:10550000DB0700D445E70298FFF749FB41E7C046B7
:1055100074110020CC110020D87E00102B1D00201B
:10552000947F0010B478001056020000291D00205E
:10553000480E0020B07F00108102000010B500234B
:10554000CB56002B05DB802100230022FFF7C4FC93
:1055500010BD0021F8E70000F8B50500144B9F8945
:10556000DE89BB1B9BB21C1C402B00D94024A4B27B
:105570000F4B1B785BB2002B08DB0021B74213D026
:105580000C4A23002800FFF7A7FCF8BDB74209D05A
:10559000074B9968402C09D806482200FDF70CFA01
:1055A0008021EBE78021E9E70022EAE70020ECE731
:1055B000181100203411002070B506000D00074CB2
:1055C00008222000FDF7F8F90023A360E381A381FE
:1055D00029003000FFF7B2FF70BDC046181100204F
:1055E000F0B5C64600B580460C0016001D001F4BE6
:1055F00008221F001800FDF7DFF9BE600023FB81C1
:10560000A379E179090219430B1CA94200D92B1C8B
:1056100099B2164A9381A279E3791B02134319D0F8
:10562000002901D0002E08D04046FFF795FF041E48
:105630000AD0200080BCB846F0BD0D490D48772245
:10564000FEF710FC0024F4E709490A487D22FEF722
:1056500009FCEEE721004046FFF770FF041EE8D189
:10566000034904488022FEF7FDFBE2E71811002001
:1056700008800010B478001010B5034814220021EF
:10568000FDF794F910BDC04618110020014B1861B8
:105690007047C0461811002010B50100044C0822C4
:1056A0002000FDF789F90023A360E381A38110BDE9
:1056B0001811002070B505001C00C909314B1B787A
:1056C000DB098B4216D0002C07D02F492F48A72288
:1056D000FEF7C8FB0024200070BD2A4C2100FFF714
:1056E00049F82369002B03D0264A03212800984754
:1056F0000124F0E7234B1B785BB2002B07DB214B27
:10570000986800283CD022492200FDF755F91D4A2F
:10571000D389A1B25B189BB2D381916809199160BA
:10572000D288934201D03F2C1FD8164B1B69002B07
:1057300005D0144A02212800984700280BD01149AF
:105740002800FFF7FBFE041EC5D10F490F48D022E9
:10575000FEF788FBBFE700212800FFF755F88021FE
:105760002800FFF751F80124B5E72800FFF7F4FE01
:10577000041EB0D104490548D822FEF773FBAAE7FE
:105780000024A8E718110020F07F0010B478001062
:105790003411002070B50400FFF77AFA002807D111
:1057A0000020002803D0E378002B09D1002070BD31
:1057B000FFF776FA002801D10130F2E70020F0E788
:1057C00025001035280001F007F93F2801D80020F6
:1057D000EDE7E1780020FFF757FB0028E7D028002D
:1057E00001F0FAF83F2808D992239B00E218E178EB
:1057F00040230020FFF770FBD9E7E1780020FFF796
:1058000057FB0020D3E7000010B50400FFF740FA73
:10581000002801D1002010BDFFF742FA002809D16D
:10582000064BB222920062439B181B79DB0703D51B
:105830000130F0E70020EEE70020ECE7500E0020FA
:1058400010B5B2239B00434310330248181801F0EF
:1058500093F810BD500E002070B5B2239B00584342
:10586000084BC5181030C018074B9A4208D892B29E
:1058700001F0E9F804002800FFF78CFF200070BD5C
:10588000024AF5E7500E0020FEFF0000FFFF000077
:1058900070B50500FFF7FCF9002804D10023002BA8
:1058A00009D1002070BDFFF7FBF9002801D10123C9
:1058B000F5E70023F3E7B224A4006C432034244B23
:1058C000E4180434200001F057F8002801D100202A
:1058D000E8E71F4BB22292006A439B189978002098
:1058E000FFF7D2FA002801D10020DBE7B226B6008C
:1058F0006E43A2239B009C466644154BF61840223B
:105900003100200001F09FF8041E15D0104BB22288
:1059100092006A439B189978030032000020FFF739
:10592000DBFA002801D02000BCE70A490A48CD2252
:10593000FEF798FA0020B5E7054BB22292006A43C1
:105940009B1899780020FFF7B3FA0020AAE7C04619
:10595000500E002038800010B478001070B505009B
:10596000B224A400444320340B4BE41804340B4B02
:105970009A420BD892B2200001F09CF80600200059
:1059800000F0FAFF3F2803D8300070BD044AF2E768
:105990002800FFF77DFFF7E7500E0020FEFF000014
:1059A000FFFF000010B5B2239B0058432030034B8B
:1059B000C018043001F010F810BDC046500E002091
:1059C000F0B5CE46474680B583B02B48B222920050
:1059D0000021FCF7EBFF294B00221A700027002F53
:1059E00004D003B0C0BCB946B046F0BD224EB224CC
:1059F000A4007C433519FF236B71E1235B02AB608C
:105A0000002398462B736B730833AB732100383136
:105A10008919F833994620001030801943460093C5
:105A200001334A4600F06AFF21003931FF318919FC
:105A30002000203080190430012300934A4600F0F2
:105A40005DFF8E239B00E3189946B1444846FBF75F
:105A500099F890239B009C466444A4192000FBF70E
:105A600091F84346EB614B462B622C6343466B63D4
:105A70000137FFB2B3E7C046500E00204C0E0020A5
:105A800010B50023002B01D0012010BD19000F4AD2
:105A9000B220800058431218106A146B002807D0F7
:105AA0000A4AB2208000584312180020D0611062C8
:105AB000002C07D0054AB220800041435218002133
:105AC000116351630133DBB2DCE7C046500E0020A6
:105AD00070B50024002C00D070BD2500B2208000DD
